:020000040800F2
:100000000804002005010008990D0008830200087B
:10001000950D00084D0100080D0F000800000000BC
:10002000000000000000000000000000BD0D0008FE
:1000300051010008000000009B0D0008A90E0008F7
:100040001F0100081F0100081F0100081F01000810
:100050001F0100081F0100081F0100081F01000800
:100060001F0100081F0100081F0100081F010008F0
:100070001F0100081F0100081F0100081F010008E0
:100080001F0100081F0100081F0100081F010008D0
:100090001F0100081F0100081F0100081F010008C0
:1000A0001F0100081F0100081F0100081F010008B0
:1000B0001F0100081F0100081F0100081F010008A0
:1000C0001F0100081F0100081F0100081F01000890
:1000D0001F0100081F0100081F0100081F01000880
:1000E0001F0100081F0100081F010008DFF810D0E1
:1000F00000F01AF8004800475D100008AFF30080D8
:10010000080400200648804706480047FEE7FEE74F
:10011000FEE7FEE7FEE7FEE7FEE7FEE7FEE7FEE7B7
:10012000AD0E0008ED000008064C074D06E0E06843
:1001300040F0010394E8070098471034AC42F6D32E
:10014000FFF7D8FF6C7A00088C7A000800BFFEE742
:1001500070472DE9F04102460025002600200023CB
:100160000024002791F803C00CF00F0591F803C09C
:100170000CF0100CBCF1000F03D091F802C04CEA57
:10018000050591F800C0BCF1000F31D014680020C3
:100190002BE04FF0010C0CFA00F3B1F800C00CEAB0
:1001A00003069E4220D183004FF00F0C0CFA03F798
:1001B000BC4305FA03FC4CEA040491F803C0BCF10B
:1001C000280F06D14FF0010C0CFA00FCC2F814C045
:1001D0000AE091F803C0BCF1480F05D14FF0010CC3
:1001E0000CFA00FCC2F810C0401C0828D1D31460DF
:1001F000B1F800C0BCF1FF0F34DD546800202EE0E0
:1002000000F1080C4FF0010808FA0CF3B1F800C037
:100210000CEA03069E4221D183004FF00F0C0CFA2A
:1002200003F7BC4305FA03FC4CEA040491F803C04D
:10023000BCF1280F05D100F1080C08FA0CF8C2F83F
:10024000148091F803C0BCF1480F07D100F1080CED
:100250004FF0010808FA0CF8C2F81080401C08287A
:10026000CED35460BDE8F0810246002093680B4075
:100270000BB1012000E0002070474161704701612F
:10028000704700BFFEE72DE9F04104460D461646D3
:100290001F462A2000F044FD201200F03BFDE0B292
:1002A00000F038FD301200F035FDF0B200F032FD04
:1002B0002B2000F035FD281200F02CFDE8B200F0F4
:1002C00029FD381200F026FDF8B200F023FD2C20A5
:1002D00000F026FDBDE8F08170B504460D461646D7
:1002E0002B46224629462046FFF7CDFF304600F038
:1002F00003FD70BD2DE9F04706460F4614461D4626
:10030000DDF820A0681E83B2601E82B239463046F6
:10031000FFF7B9FFB8460EE0B14606E0504600F0E0
:10032000EBFC09F101001FFA80F9A145F6DB08F1A9
:1003300001001FFA80F8A845EEDBBDE8F087000059
:1003400008B50121042000F029FD3F20ADF8000090
:1003500010208DF8030003208DF802006946044840
:10036000FFF7F7FE3F210248FFF789FF08BD0000B5
:100370000008014010B5FFF7E3FF04216E48FFF7C6
:100380007CFF642000F052FE04216B48FFF777FFEA
:10039000642000F04BFE20216748FFF770FF6420C7
:1003A00000F044FEE02000F0BBFC002000F0B2FCB6
:1003B000072000F0AFFC0F2000F0ACFC0D2000F097
:1003C000A9FC1B2000F0A6FC0A2000F0A3FC3C20A6
:1003D00000F0A0FC782000F09DFC4A2000F09AFC80
:1003E000072000F097FC0E2000F094FC092000F09C
:1003F00091FC1B2000F08EFC1E2000F08BFC0F20D7
:1004000000F088FCE12000F08BFC002000F082FC72
:10041000222000F07FFC242000F07CFC062000F06D
:1004200079FC122000F076FC072000F073FC3620E7
:1004300000F070FC472000F06DFC472000F06AFCE3
:10044000062000F067FC0A2000F064FC072000F0A2
:1004500061FC302000F05EFC372000F05BFC0F20D8
:1004600000F058FCC02000F05BFC102000F052FCB3
:10047000102000F04FFCC12000F052FC412000F0A1
:1004800049FCC52000F04CFC002000F043FC222079
:1004900000F040FC802000F03DFC362000F040FCE5
:1004A000E82000F037FC3A2000F03AFC662000F02B
:1004B00031FCB02000F034FC002000F02BFCB12017
:1004C00000F02EFCB02000F025FC112000F022FCF2
:1004D000B42000F025FC022000F01CFCB62000F047
:1004E0001FFC022000F016FC022000F013FCB720D5
:1004F00000F016FCC62000F00DFCE92000F010FC16
:10050000002000F007FCF72000F00AFCA92000F012
:1005100001FC512000F0FEFB2C2000F0FBFB8220B0
:1005200000F0F8FB112000F0FBFB782000F07EFDCE
:10053000292000F0F5FB10BD000801402DE9FF5F08
:1005400080468A4617469B460F9D00200290CDF8B4
:100550000080284605EBD071C1F347042046E2171E
:1005600004EB5272D2102146E31704EB5373DB10F5
:10057000A4EBC3030BB1012300E000231A446A4338
:1005800092B20192A7F12000C7B20AEB0500401E0B
:1005900083B208EB0400401E82B251464046FFF78A
:1005A00072FE002669E00C2D07D107EB47003549A4
:1005B00001EB8000805D03901BE0102D05D13248D7
:1005C00000EB0710805D039013E0182D07D107EBB7
:1005D00047002E4901EB0010805D039009E0202DBB
:1005E00005D12B4800EB8710805D039001E0BDE84A
:1005F000FF9F4FF000093AE01098C8B9012000FAB7
:1006000009F00399084018B1584600F075FB02E064
:100610000E9800F071FB0298401CC0B20290029844
:1006200090FBF4F104FB1100E8B90020029021E0F6
:10063000012000FA09F00399084020B15A465146BA
:100640004046FFF749FE08F101001FFA80F80098C4
:10065000A8EB0000A04206D1DDF800800AF10100FD
:100660001FFA80FA06E009F1010000F0FF09B9F174
:10067000080FC1DB00BF701C86B20198864292DB76
:1006800000BFB4E786140008FA180008EA1E000844
:10069000BA3000082DE9FE4F8046894617469A4633
:1006A000DDE90D460C9D36E00C2C09D153463A4647
:1006B00049464046CDE90146009500F031F825E075
:1006C000102C09D153463A4649464046CDE90146E9
:1006D000009500F0C9F819E0182C09D153463A46A4
:1006E00049464046CDE90146009500F059F90DE034
:1006F000202C09D153463A4649464046CDE90146A9
:10070000009500F0F1F901E0BDE8FE8FBF1C08EB99
:1007100004001FFA80F838780028C5D100BFF3E73D
:100720002DE9FF5F0646894692469B460F9C0020B6
:10073000039000962046E21704EB5272D210214635
:10074000E31704EB5373DB10A4EBC3030BB10123DA
:1007500000E000231A44624392B201920B200290FF
:10076000002579E005EB850000EBC5003D4911F857
:1007700010009AF8001088426BD105EB850000EB61
:10078000C500384901EB400040789AF801108842D2
:100790005FD109EB0400401E83B23019401E82B2C3
:1007A00049463046FFF76FFD00274FE04FF0000845
:1007B00046E0109808BB05EB850000EBC500294911
:1007C00001EB4000801CC05D012101FA08F10840E6
:1007D00018B1584600F090FA02E00E9800F08CFA3A
:1007E0000398401CC0B20390039890FBF4F104FB03
:1007F000110008BB0020039025E005EB850000EB0D
:10080000C500184901EB4000801CC05D012101FAC0
:1008100008F1084020B15A4649463046FFF75CFDD2
:10082000701C86B20098301AA04205D1009E09F1D2
:1008300001001FFA80F906E008F1010000F0FF084E
:10084000B8F1080FB5DB00BF781CC7B2019887422A
:10085000ACDB00BF681C85B20298854282DBBDE834
:10086000FF9F00007A4800082DE9FF5F0646894691
:1008700092469B460F9C0020039000962046E2176C
:1008800004EB5272D2102146E31704EB5373DB10D2
:10089000A4EBC3030BB1012300E000231A4462431D
:1008A00092B201920B200290002571E005EB051039
:1008B0003A4911F810009AF80010884265D105EB0A
:1008C0000510364901EB400040789AF80110884243
:1008D0005BD109EB0400401E83B23019401E82B286
:1008E00049463046FFF7CFFC00274BE04FF00008A9
:1008F00042E01098F8B905EB0510284901EB4000DB
:10090000801CC05D012101FA08F1084018B1584669
:1009100000F0F2F902E00E9800F0EEF90398401CA6
:10092000C0B20390039890FBF4F104FB1100F8B9F6
:100930000020039023E005EB0510184901EB40006F
:10094000801CC05D012101FA08F1084020B15A461F
:1009500049463046FFF7C0FC701C86B20098301A3A
:10096000A04205D1009E09F101001FFA80F906E0BE
:1009700008F1010000F0FF08B8F1080FB9DB00BF73
:10098000781CC7B201988742B0DB00BF681C85B2F3
:10099000029885428ADBBDE8FF9F00009849000865
:1009A0002DE9FF5F0646894692469B460F9C002034
:1009B000039000962046E21704EB5272D2102146B3
:1009C000E31704EB5373DB10A4EBC3030BB1012358
:1009D00000E000231A44624392B201920420029084
:1009E000002579E005EB850000EB45103D4911F845
:1009F00010009AF8001088426BD105EB850000EBDF
:100A00004510384901EB400040789AF801108842BF
:100A10005FD109EB0400401E83B23019401E82B240
:100A200049463046FFF72FFC00274FE04FF0000803
:100A300046E0109808BB05EB850000EB45102949FE
:100A400001EB4000801CC05D012101FA08F1084063
:100A500018B1584600F050F902E00E9800F04CF939
:100A60000398401CC0B20390039890FBF4F104FB80
:100A7000110008BB0020039025E005EB850000EB8A
:100A80004510184901EB4000801CC05D012101FAAE
:100A900008F1084020B15A4649463046FFF71CFC91
:100AA000701C86B20098301AA04205D1009E09F150
:100AB00001001FFA80F906E008F1010000F0FF08CC
:100AC000B8F1080FB5DB00BF781CC7B201988742A8
:100AD000ACDB00BF681C85B20298854282DBBDE8B2
:100AE000FF9F00000E4B00082DE9FF5F0646894678
:100AF00092469B460F9C0020039000962046E217EA
:100B000004EB5272D2102146E31704EB5373DB104F
:100B1000A4EBC3030BB1012300E000231A4462439A
:100B200092B201925B200290002571E005EB8510E6
:100B30003A4911F810009AF80010884265D105EB87
:100B40008510364901EB400040789AF80110884240
:100B50005BD109EB0400401E83B23019401E82B203
:100B600049463046FFF78FFB00274BE04FF0000867
:100B700042E01098F8B905EB8510284901EB4000D8
:100B8000801CC05D012101FA08F1084018B15846E7
:100B900000F0B2F802E00E9800F0AEF80398401CA6
:100BA000C0B20390039890FBF4F104FB1100F8B974
:100BB0000020039023E005EB8510184901EB40006D
:100BC000801CC05D012101FA08F1084020B15A469D
:100BD00049463046FFF780FB701C86B20098301AF9
:100BE000A04205D1009E09F101001FFA80F906E03C
:100BF00008F1010000F0FF08B8F1080FB9DB00BFF1
:100C0000781CC7B201988742B0DB00BF681C85B270
:100C1000029885428ADBBDE8FF9F0000364C000841
:100C20002DE9FF4F85B0074691461D46DDE913A625
:100C300000200490304606EBD071C1F3470B00242E
:100C400034E0281B401EC1B20A2000F011FCB9FBA1
:100C5000F0F00A21B0FBF1F201FB12080498A0B9F0
:100C6000681EA04211DDB8F1000F0CD1002004FB7A
:100C70000B71CDE900A6029088B22022129B069942
:100C8000FFF75CFC10E001200490002008F1300127
:100C9000CAB204FB0B71CDE900A6029088B2129B88
:100CA0000699FFF74BFC00BF601CC4B2AC42C8DB26
:100CB00009B0BDE8F08F2DE9FE4F06460F461446F9
:100CC0009846DDE90D5ADDF8309010E0CDE9015A83
:100CD000CDF800902278434639463046FFF72EFC87
:100CE000284605EBD07106EB61018EB2641C2078BA
:100CF0000028EBD1BDE8FE8F10B50446C4F30740D1
:100D000000F01EF8C4F3072000F01AF8E0B200F07B
:100D100017F810BD10B50446204600F011F810BDBC
:100D200010B5044608210548FFF7A7FA204600F051
:100D300007F808210148FFF7A2FA10BD000801409A
:100D400070B5044610211248FFF797FA002517E006
:100D500001210F48FFF791FA04F0800020B1022131
:100D60000B48FFF78CFA03E002210948FFF785FAE8
:100D700001210748FFF783FA6006040E681CC5B21C
:100D8000082DE5DB10210248FFF779FA70BD00005D
:100D90000008014000BFFEE77047704729B1064ACE
:100DA00092690243044B9A6104E0034A92698243C8
:100DB000014B9A617047000000100240704710B567
:100DC00000F002F810BD00000CB50020019000906A
:100DD0003348006840F480303149086000BF304833
:100DE000006800F4003000900198401C01900098C9
:100DF00018B90198B0F5A06FF1D12948006800F446
:100E0000003010B10120009001E000200090009817
:100E1000012843D12348006840F0100021490860B0
:100E20000846006820F0070008600846006840F0A7
:100E3000020008601A48406819494860084640683E
:100E400048600846406840F4806048600846406852
:100E500020F47C1048600846406840F4E810486080
:100E60000846006840F08070086000BF0C480068C9
:100E700000F000700028F9D00948406820F0030015
:100E8000074948600846406840F00200486000BFDB
:100E90000348406800F00C000828F9D10CBD0000A0
:100EA00000100240002002407047000010B51348B7
:100EB000006840F001001149086008464068104988
:100EC00008400E494860084600680E4908400B4932
:100ED00008600846006820F48020086008464068E2
:100EE00020F4FE0048604FF41F008860FFF767FFA2
:100EF0004FF000600449086010BD0000001002407F
:100F00000000FFF8FFFFF6FE08ED00E000BFFEE77F
:100F100002E008C8121F08C1002AFAD170477047C2
:100F2000002001E001C1121F002AFBD1704710B55B
:100F3000FFF720FA202310220321012000F002F8FD
:100F400010BD0000F8B504460D4616461F46072C96
:100F500028D2DFE804F004090E13181D2200012135
:100F60000420FFF71BFF1EE001210820FFF716FFFA
:100F700019E001211020FFF711FF14E001212020CA
:100F8000FFF70CFF0FE001214020FFF707FF0AE009
:100F900001218020FFF702FF05E001210802FFF791
:100FA000FDFE00E000BF00BFADF800708DF80250FC
:100FB0008DF80360072C28D2DFE804F004090E1333
:100FC000181D220069461248FFF7C3F81EE0694663
:100FD0001048FFF7BEF819E069460F48FFF7B9F867
:100FE00014E069460D48FFF7B4F80FE069460C4875
:100FF000FFF7AFF80AE069460A48FFF7AAF805E0EC
:1010000069460948FFF7A5F800E000BF00BFF8BD3A
:1010100000080140000C0140001001400014014094
:1010200000180140001C01400020014030B504467A
:10103000002504E04FF47A7000F004F86D1CA5421E
:10104000F8D330BD002106E0002201E000BF521CB1
:10105000482AFBD3491C8142F6D37047FFF767FF4C
:101060001CE00F4800680938062816D2DFE800F0B7
:101070000306090C0F1200F007F90EE000F016F855
:101080000BE000F00FF808E000F00DF805E000F0CC
:101090000BF802E000F009F800BF00BFE1E7000034
:1010A0000000002070477047704770470EB56FF022
:1010B0007F404FF4A0734FF4F07200210090084677
:1010C000FFF718F920206FF07F414FF47F020123D2
:1010D000CDE9002102901A4600210846FFF7A0FD45
:1010E000002020216FF07F424FF47F03CDE90021E3
:1010F000029049A201462020FFF7CCFA00202021CF
:101100006FF07F424FF47F03CDE90021029045A2AA
:101110000146A020FFF7CFFD20206FF07F414FF464
:101120007F020123CDE90021029002222821002024
:10113000FFF776FD002020216FF07F424FF47F0300
:10114000CDE9002102903BA228212020FFF7A2FA3E
:10115000002020216FF07F424FF47F03CDE9002172
:10116000029037A22821A020FFF7A5FD20206FF0D4
:101170007F414FF47F020123CDE900210290032239
:1011800050210020FFF74CFD002020216FF07F420E
:101190004FF47F03CDE9002102902DA250212020A1
:1011A000FFF778FA002020216FF07F424FF47F0391
:1011B000CDE90021029029A25021A020FFF77BFD5C
:1011C00020206FF07F414FF47F020123CDE9002101
:1011D0000290042278210020FFF722FD0020202128
:1011E0006FF07F424FF47F03CDE9002102901FA2F0
:1011F00078212020FFF74EFA002020216FF07F4257
:101200004FF47F03CDE9002102901BA27821C0207A
:10121000FFF751FD00BFFEE7BEB2CCACCDBCC6AC03
:10122000000000002020202020202020202020203E
:1012300046310000B5CDCBD9CAD3C6B500000000F9
:1012400020202020202020202020202046320000A6
:10125000B8DFCBD9CAD3C6B50000000020202020BB
:10126000202020202020202046330000D7D4B6A8FC
:10127000D2E5D7F8B1EA000020202020202020204D
:1012800020204634000000000EB56FF07F404FF480
:10129000A0734FF4F072002100900846FFF72AF87F
:1012A000002020216FF07F420346CDE9002102900B
:1012B00002220146FFF7B4FC002020216FF07F429C
:1012C0000346CDE90021029002461021FFF7A8FC59
:1012D000002020216FF07F420346CDE900210290DB
:1012E0000222FFF79DFC002020216FF07F42034681
:1012F000CDE90021029005223021FFF791FC00206A
:1013000020216FF07F424FF47F03CDE9002102904E
:101310003DA23C21FFF7BEF9002020216FF07F4263
:101320004FF47F03CDE9002102903EA25021FFF748
:10133000B1F9002020216FF07F424FF47F03CDE907
:10134000002102903EA27821FFF7A4F920206FF03F
:101350007F414FF47F020123CDE90021029000225A
:1013600078217020FFF75CFC20206FF07F414FF464
:101370007F020123CDE9002102901A4678218020C6
:10138000FFF74EFC002020216FF07F424FF47F03D7
:10139000CDE9002102902DA2F021FFF77BF900207A
:1013A00020216FF07F424FF47F03CDE900210290AE
:1013B00028A2F0214020FFF77EFC002020216FF0C2
:1013C0007F424FF47F03CDE90021029022A2F02159
:1013D0005A20FFF75FF914E020212348FEF744FF6D
:1013E00001280ED10A20FFF721FE20211E48FEF71A
:1013F0003BFF012805D11D480068401C1B490860BF
:1014000000E0E9E700BF0EBDC4EAB8A3BDA8CAA1C9
:10141000D6B0D2B5D4BAD0A3BCBCC4DCB4F3C8FC3B
:1014200000000000D6C7C4DCB5E7D7D3B2FAC6B710
:10143000C9E8BCC6D3EBBFAAB7A2C8FCCFEE000078
:10144000B9A4CEBBBAC5A3BA00000000B0B4CFC2E5
:101450000000000045000000B0B4BCFCBDF8C8EBC3
:10146000D6F7BDE7C3E60000000C014000000020F5
:1014700010B50246012000E050430B1EA1F101040B
:10148000E1B2F9D110BD0000000000000000000032
:10149000000000000404040404000004000014140C
:1014A0000A00000000000000000000000A0A1F0AF5
:1014B0000A1F0A0A000000040E1505060C14150E7A
:1014C0000400000012150D152E2C2A120000000039
:1014D000040A0A3615152916000002020100000050
:1014E00000000000000010080804040404040808B8
:1014F00010000204040808080808040402000000A0
:101500000004150E0E150400000000000008083E3F
:1015100008080000000000000000000000000202B7
:10152000010000000000003F00000000000000007B
:101530000000000000000002000000201010080859
:1015400004040202010000000E1111111111110E0C
:1015500000000000040604040404040E000000005F
:101560000E1111080402011F000000000E11100CE2
:101570001010110E00000000080C0C0A091F081CB6
:10158000000000001F01010F1110110E00000000EB
:101590000C12010D1311110E000000001E1008089E
:1015A00004040404000000000E11110E1111110EAC
:1015B000000000000E1111191610090600000000AD
:1015C000000004000000000400000000000000040F
:1015D00000000004040000001008040202040810C7
:1015E0000000000000003F003F000000000000007D
:1015F0000204081010080402000000000E11110877
:1016000004040004000000001C22292D2D1D221CB2
:101610000000000004040C0A0A1E1233000000003F
:101620000F12120E1212120F000000001E11010103
:101630000101110E000000000F1212121212120FFF
:10164000000000001F120A0E0A02121F0000000014
:101650001F120A0E0A020207000000001C120101FC
:101660003911120C000000003312121E1212123334
:10167000000000001F0404040404041F0000000014
:101680003E080808080808080907000037120A067B
:101690000A12123700000000070202020202223F73
:1016A000000000003B1B1B1B15151535000000003A
:1016B0003B1216161A1A1217000000000E11111113
:1016C0001111110E000000000F12120E020202078B
:1016D000000000000E1111111117190E1800000062
:1016E0000F12120E0A121237000000001E1101061E
:1016F0000810110F000000001F1504040404040E5C
:1017000000000000331212121212120C000000002E
:101710003312120A0A0C04040000000015151515F6
:101720000E0A0A0A000000001B0A0A04040A0A1B27
:10173000000000001B0A0A0A0404040E0000000056
:101740001F0908040402121F00001C0404040404FE
:10175000040404041C000002020404040808081025
:1017600010000E0808080808080808080E00040AF7
:101770000000000000000000000000000000000069
:1017800000000000003F0204000000000000000014
:10179000000000000000000C121C123C00000003BE
:1017A0000202020E1212120E000000000000001CC5
:1017B0001202120C000000181010101C1212123C21
:1017C000000000000000000C121E021C00000018A7
:1017D0002404041E0404041E000000000000003C59
:1017E000120C021C221C00030202020E12121237FB
:1017F00000000004040000060404040E00000008B9
:101800000800000C08080808080700030202021A72
:101810000A060A1300000007040404040404041F59
:10182000000000000000000F151515150000000055
:101830000000000F12121237000000000000000C20
:101840001212120C000000000000000F1212120E03
:10185000020700000000001C1212121C10380000C9
:101860000000001B06020207000000000000001E2E
:10187000020C101E000000000004041E0404041CDE
:10188000000000000000001B1212123C00000000CB
:101890000000001B0A0A04040000000000000015FC
:1018A000150E0A0A000000000000001B0A040A1BB3
:1018B000000000000000003312120C0804030000B6
:1018C0000000001E0804041E000018080808080C88
:1018D0000808080818000808080808080808080880
:1018E0000808060404040408040404040600160995
:1018F00000000000000000000000000000000000E8
:1019000000000000000000000000000000080808BF
:101910000808080800001818000000486C2412008D
:10192000000000000000000000000000002424244B
:101930007F1212127F12121200000000081C2A2AC5
:101940000A0C1828282A2A1C08080000002225153D
:1019500015152A585454542200000000000C12128D
:10196000120A76252911916E000000060604030074
:1019700000000000000000000000004020101008DF
:101980000808080808101020400000020408081089
:1019900010101010100808040200000000000808D1
:1019A0006B1C1C6B08080000000000000000080809
:1019B00008087F0808080800000000000000000078
:1019C0000000000000000606040300000000000004
:1019D0000000FE0000000000000000000000000009
:1019E00000000000000006060000000080404020CB
:1019F000201010080804040202000000001824420D
:101A000042424242424224180000000000080E08F0
:101A1000080808080808083E00000000003C424290
:101A2000422020100804427E00000000003C424298
:101A3000201820404042221C0000000000203028D6
:101A4000242422227E20207800000000007E020252
:101A5000021A26404042221C0000000000382402E6
:101A6000021A26424242241800000000007E222270
:101A7000101008080808080800000000003C424256
:101A8000422418244242423C000000000018244234
:101A9000424264584040241C000000000000000046
:101AA00018180000000018180000000000000000D6
:101AB000000800000000000808040000004020109A
:101AC000080402040810204000000000000000008C
:101AD0007F0000007F0000000000000000020408FA
:101AE000102040201008040200000000003C424288
:101AF000464020101000181800000000001C225A58
:101B0000555555552D42221C0000000000080818AC
:101B10001414243C224242E700000000001F22224D
:101B2000221E22424242221F00000000007C42424C
:101B3000010101010142221C00000000001F22429D
:101B4000424242424242221F00000000003F421235
:101B5000121E12120242423F00000000003F4212D9
:101B6000121E12120202020700000000003C222294
:101B7000010101712122221C0000000000E7424205
:101B800042427E42424242E700000000003E080816
:101B9000080808080808083E00000000007C101033
:101BA0001010101010101010110F000000772212EA
:101BB0000A0E0A1212222277000000000007020219
:101BC000020202020202427F000000000077363665
:101BD00036362A2A2A2A2A6B0000000000E34646ED
:101BE0004A4A52525262624700000000001C2241E1
:101BF000414141414141221C00000000003F42425E
:101C000042423E020202020700000000001C224184
:101C1000414141414D53321C60000000003F4242AF
:101C2000423E1212222242C700000000007C4242C3
:101C3000020418204042423E00000000007F490894
:101C4000080808080808081C0000000000E74242D5
:101C5000424242424242423C0000000000E742420F
:101C6000222424141418080800000000006B4949BD
:101C700049495555362222220000000000E742243F
:101C800024181818242442E70000000000772222BC
:101C9000141408080808081C00000000007E212019
:101CA000101008040442423F0000007808080808A9
:101CB0000808080808080808780000000202040460
:101CC00008080810102020204040001E101010109E
:101CD00010101010101010101E00003844000000EA
:101CE00000000000000000000000000000000000F4
:101CF000000000000000000000FF000608000000D7
:101D000000000000000000000000000000000000D3
:101D1000003C4278444242FC000000000003020202
:101D2000021A26424242261A00000000000000006B
:101D300000384402020244380000000000604040C5
:101D400040784442424264D8000000000000000095
:101D5000003C427E0202423C0000000000F0880885
:101D6000087E08080808083E000000000000000087
:101D7000007C22221C023C42423C00000003020282
:101D8000023A4642424242E700000000000C0C00CA
:101D9000000E08080808083E00000000003030006F
:101DA0000038202020202020221E000000030202F4
:101DB0000272120A1612227700000000000E0808B4
:101DC000080808080808083E00000000000000009D
:101DD000007F9292929292B70000000000000000F3
:101DE000003B4642424242E7000000000000000083
:101DF000003C42424242423C000000000000000021
:101E0000001B26424242221E020700000000000082
:101E1000007844424242447840E000000000000064
:101E200000774C040404041F0000000000000000C0
:101E3000007C42023C40423E0000000000000008DE
:101E4000083E0808080808300000000000000000F4
:101E500000634242424262DC0000000000000000D9
:101E600000E74224241408080000000000000000DD
:101E700000EB4949555522220000000000000000F7
:101E8000007624181818246E0000000000000000DE
:101E900000E742242414180808070000000000008E
:101EA000007E22100808447E000000C02020202070
:101EB0002010202020202020C00010101010101012
:101EC000101010101010101010100006080808084C
:101ED000081008080808080806000C32C2000000B4
:101EE00000000000000000000000000000000000F2
:101EF00000000000000000000000000000000000E2
:101F000000000000000000000000000000000000D1
:101F100000000000000000000000000000000000C1
:101F20000000600060006000600060006000600011
:101F300040002000200020000000000000006000A1
:101F4000600060000000000000000000000060066B
:101F50006006300398018800440000000000000083
:101F60000000000000000000000000000000000071
:101F70000000000000000000000000000000000061
:101F800000001002100210021002FE07FE070802F5
:101F90000801080108010801FE07FE070401040109
:101FA0000401040100000000000000000000000027
:101FB00040004000F00158034C03CC034C00580093
:101FC0007000E000C001C00140034C035C034C03FF
:101FD0004801F00040004000000000000000000048
:101FE00000000E010A019100910091005100510082
:101FF0003A00AE03A00250045004480448044804C8
:1020000084028403000000000000000000000000C3
:10201000000038006C006C006C006C006C002C0040
:1020200098071C011A01330133016301E300C3085F
:10203000C6093C07000000000000000000000C0082
:102040001C00100010000800040000000000000048
:102050000000000000000000000000000000000080
:10206000000000000000000000000000000000046C
:10207000000200018000800040004000200020009D
:1020800020002000200020002000400040008000B0
:1020900080000001000200040000000000000200B7
:1020A0000400080010001000200020004000400044
:1020B0004000400040004000400020002000100090
:1020C00010000800040002000000000000000000F2
:1020D0000000000000004000C0004000460C4E0F11
:1020E000D001F0015E0F460C4000400040000000AF
:1020F00000000000000000000000000000000000E0
:1021000000000000000000004000400040004000CF
:102110004000FE0F40004000400040004000000032
:1021200000000000000000000000000000000000AF
:10213000000000000000000000000000000000009F
:1021400000000000000000000000000000000C0083
:102150001C00100010000800040000000000000037
:10216000000000000000000000000000000000006F
:102170000000FE070000000000000000000000005A
:10218000000000000000000000000000000000004F
:10219000000000000000000000000000000000003F
:1021A00000000000000000000000000000001C0013
:1021B0001C001C00000000000000000000000004E3
:1021C00000060002000300010001800080004000C2
:1021D00040006000200020001000100008000800EF
:1021E0000C000400060002000000000000000000D7
:1021F00000000000F00098010C030C030606060620
:102200000606060606060606060606060C030C0368
:102210009801F00000000000000000000000000035
:102220000000000040007C00600060006000600072
:10223000600060006000600060006000600060009E
:102240006000FC030000000000000000000000002F
:1022500000000000F80084010203060306030003E7
:1022600000018001C000600020001000080204028C
:102270000602FE0300000000000000000000000055
:10228000000000007800C600860186018001800100
:10229000C000700080010001000300030603060374
:1022A0008601F800000000000000000000000000AF
:1022B0000000000080018001C001A001A001900188
:1022C0008801880184018201FE0F80018001800164
:1022D0008001E00700000000000000000000000096
:1022E00000000000FC0304000400040004000400DB
:1022F000F4008C01040300030003060306038201BB
:102300008401F80000000000000000000000000050
:1023100000000000E00118030C030C00040006009C
:10232000E60116030E0606060606060604060C025D
:102330001803F00000000000000000000000000092
:1023400000000000F8070C0604020401000100016F
:10235000800080004000400040006000600060009D
:1023600060006000000000000000000000000000AD
:1023700000000000F8010C030606060606060C0223
:102380001C03F000C8010C03060606060606060636
:102390000C03F0010000000000000000000000003D
:1023A00000000000F0000C010C0306020606060601
:1023B000060606078C0678060006000300030C01DB
:1023C0008C01780000000000000000000000000008
:1023D0000000000000000000000000000000E0001D
:1023E000E000E00000000000000000000000E0004D
:1023F000E000E0000000000000000000000000001D
:10240000000000000000000000000000000060006C
:10241000600000000000000000000000000000005C
:10242000600060004000200020000000000000006C
:1024300000000004000200018000400020001000A5
:102440000800040008001000200040008000000187
:102450000002000400000000000000000000000076
:102460000000000000000000000000000000FE0767
:10247000000000000000FE07000000000000000057
:10248000000000000000000000000000000000004C
:10249000000004000800100020004000800000013F
:1024A0000002000400020001800040002000100033
:1024B0000800040000000000000000000000000010
:1024C00000000000E0031806040C040C0C0C0C0CBB
:1024D0000007800140004000400000000000E000D4
:1024E000E000E0000000000000000000000000002C
:1024F0000000E00018030C02CC0564056605A60583
:10250000B604B604B604B604B602E4010C040C0228
:102510001803F000000000000000000000000000B0
:1025200000000000600060005000D00090009000AB
:10253000880088010801F801040304030402020270
:1025400002060F0F00000000000000000000000065
:1025500000000000FE008C030C030C030C030C03B2
:102560008C01FC000C030C020C060C060C060C067D
:102570000C03FE010000000000000000000000004D
:1025800000000000E00318030C060C04040406001D
:102590000600060006000600060006040C040C02F5
:1025A0001803F00000000000000000000000000020
:1025B000000000007F008C010C030C030C060C06CD
:1025C0000C060C060C060C060C060C060C030C0381
:1025D0008C017F00000000000000000000000000EF
:1025E00000000000FF030603060406040600860040
:1025F0008600FE00860086008600060006040604AB
:102600000602FF03000000000000000000000000C0
:1026100000000000FF03060306040604060086000F
:102620008600FE0086008600860006000600060082
:1026300006001F0000000000000000000000000075
:1026400000000000F00018010C020C020402060059
:10265000060006000600C60F060306030C030C0363
:102660001803F0000000000000000000000000005F
:10267000000000000F0F0606060606060606060600
:102680000606FE07060606060606060606060606F1
:1026900006060F0F00000000000000000000000010
:1026A00000000000FC03600060006000600060004B
:1026B000600060006000600060006000600060001A
:1026C0006000FC03000000000000000000000000AB
:1026D00000000000F807C000C000C000C000C0003B
:1026E000C000C000C000C000C000C000C000C000EA
:1026F000C000C000C60066003C00000000000000F2
:1027000000000000CF038601C60046002600160028
:1027100036002E006E004600C600860086010601C7
:1027200006038F070000000000000000000000000A
:10273000000000001F00060006000600060006005C
:102740000600060006000600060006000604060451
:102750000602FF030000000000000000000000006F
:10276000000000000707860386038E038E034E03D6
:102770004E034A035A035A033A0332033203320325
:1027800012038707000000000000000000000000A6
:10279000000000008E0F0C021C021C0234023402E6
:1027A000640264024402C4028402840384030403B6
:1027B00004031F02000000000000000000000000F1
:1027C00000000000F00098010C030C02060606064B
:1027D0000606060606060606060606060C020C0394
:1027E0009801F00000000000000000000000000060
:1027F00000000000FF0006030606060606060606A1
:1028000006068603FE000600060006000600060017
:1028100006001F0000000000000000000000000093
:1028200000000000F00098010C030C0206060606EA
:102830000606060606060606060676064C02CC03C3
:102840009801F00080070003000000000000000075
:1028500000000000FF01060306060606060606063F
:102860000603FE004600C600860086010603060336
:1028700006060F0E0000000000000000000000002F
:1028800000000000F8020C030602060206000E001B
:102890003C00F800E003800300070206020606067B
:1028A0000C03F00100000000000000000000000028
:1028B00000000000FE07620461086108600060001B
:1028C0006000600060006000600060006000600008
:1028D0006000F8010000000000000000000000009F
:1028E000000000001E070C020C020C020C020C027D
:1028F0000C020C020C020C020C020C020C020C0268
:102900001801F000000000000000000000000000BE
:10291000000000000F070602040104010C010C0175
:102920008800880098009800500050007000300027
:102930002000200000000000000000000000000057
:1029400000000000F70E62044204460446046402DC
:102950006402E402E4029C029C019801980188014F
:102960008800880000000000000000000000000057
:10297000000000009E070C01080118019000B00043
:102980006000200060006000D00090008801080115
:1029900004038E070000000000000000000000009B
:1029A000000000000F0F060404020C0208011801C9
:1029B000B800B0007000600060006000600060005F
:1029C0006000F801000000000000000000000000AE
:1029D00000000000FC070C020603020180018000D9
:1029E00040004000200020001000180008040C04E3
:1029F0000402FE0300000000000000000000E003ED
:102A000020002000200020002000200020002000C6
:102A100020002000200020002000200020002000B6
:102A2000200020002000E003000000000000000063
:102A3000000004000400080008001000100010004E
:102A40002000200040004000C00080008000000105
:102A500000010002000200020004000000007C00EF
:102A60004000400040004000400040004000400066
:102A70004000400040004000400040004000400056
:102A80004000400040007C0000000000600090001A
:102A9000080100000000000000000000000000002D
:102AA0000000000000000000000000000000000026
:102AB0000000000000000000000000000000000016
:102AC0000000000000000000000000000000000006
:102AD00000000000000000000000000000000000F6
:102AE0000000000000000000FF0F000000001800C0
:102AF0006000000000000000000000000000000076
:102B000000000000000000000000000000000000C5
:102B100000000000000000000000000000000000B5
:102B20000000000000000000000000000000F001B4
:102B30000C030C030003E0031C030E03060306034F
:102B40008E0B7C0E00000000000000000000000062
:102B5000000008000E000C000C000C000C00CC0162
:102B60003C031C060C060C060C060C060C060C029C
:102B70001C03E40100000000000000000000000051
:102B80000000000000000000000000000000F00055
:102B90008C018C01860106000600060006020C026C
:102BA0000C01F00000000000000000000000000028
:102BB00000000002C00300030003000300037803C9
:102BC0008C030C0306030603060306030603040333
:102BD0008C077801000000000000000000000000E9
:102BE0000000000000000000000000000000E00104
:102BF000180308020C060C06FC070C000C00180455
:102C00001802E001000000000000000000000000C9
:102C100000000000C0036006300630003000FE01F6
:102C20003000300030003000300030003000300024
:102C30003000FC0100000000000000000000000067
:102C40000000000000000000000000000000F0078D
:102C5000D8068C018C018C019801F8000C00FC0056
:102C6000CC03060306038E03F800000000000000FA
:102C7000000008000E000C000C000C000C00EC0121
:102C80001C030C030C030C030C030C030C030C03BC
:102C90000C039E0700000000000000000000000080
:102CA00000000000600060000000000040007C00A8
:102CB0006000600060006000600060006000600014
:102CC0006000FC03000000000000000000000000A5
:102CD00000000000C001C001000000000001F00180
:102CE00080018001800180018001800180018001DC
:102CF000800180018001CC007C0000000000000009
:102D0000000008000E000C000C000C000C008C03EE
:102D10008C008C004C006C005C008C008C010C0161
:102D20000C039E07000000000000000000000000EF
:102D3000000040007C0060006000600060006000F7
:102D40006000600060006000600060006000600083
:102D50006000FC0300000000000000000000000014
:102D60000000000000000000000000000000370725
:102D7000EE0666066606660666066606660666066B
:102D80006606FF0F000000000000000000000000C9
:102D90000000000000000000000000000000EE0144
:102DA0001C030C030C030C030C030C030C030C039B
:102DB0000C039E070000000000000000000000005F
:102DC0000000000000000000000000000000F00013
:102DD00098010C03060606060606060606060C0300
:102DE0000C03F000000000000000000000000000E4
:102DF0000000000000000000000000000000EE01E4
:102E00001C030C060C060C060C060C060C060C0328
:102E10001C03EC010C000C003E0000000000000050
:102E20000000000000000000000000000000780228
:102E30008C030C03060306030603060306030403C0
:102E40008C03780300030003C007000000000000AB
:102E500000000000000000000000000000009F03D0
:102E60005806380618001800180018001800180036
:102E70001800FF000000000000000000000000003B
:102E80000000000000000000000000000000F0034F
:102E90001C030C020C023800F000C00304030403FE
:102EA0008C03FC0100000000000000000000000096
:102EB0000000000000002000200030003000FE0173
:102EC0003000300030003000300030003000300280
:102ED0003002E001000000000000000000000000DF
:102EE00000000000000000000000000008028E0347
:102EF0000C030C030C030C030C030C030C030C035A
:102F00009C077801000000000000000000000000A5
:102F100000000000000000000000000000001E078C
:102F20000C020801080118019000B000B000600018
:102F30006000200000000000000000000000000011
:102F40000000000000000000000000000000F70E7C
:102F50006204460464026402EC029C019801980138
:102F600098010800000000000000000000000000C0
:102F70000000000000000000000000000000BC078E
:102F800018011001B00060006000E000900008012E
:102F900008039E0700000000000000000000000081
:102FA00000000000000000000000000000009E077C
:102FB00008010801080190009000B0006000600066
:102FC00060002000200024001C0000000000000021
:102FD0000000000000000000000000000000FC01F4
:102FE0008401C40044006000200030001802080280
:102FF0000C03FC01000000000000000000000003C2
:1030000080008000800080008000800080008000C0
:103010004000200040008000800080008000800090
:10302000800080008000000300004000400040005D
:103030004000400040004000400040004000400090
:103040004000400040004000400040004000400080
:1030500040004000400040004000000000000C0024
:1030600010001000100010001000100010001000E0
:103070002000400020001000100010001000100080
:103080001000100010000C00000000001C002204C2
:10309000C2048003000000000000000000000000E7
:1030A0000000000000000000000000000000000020
:1030B0000000000000000000000000000000000010
:1030C0000000000000000000000000000000000000
:1030D00000000000000000000000000000000000F0
:1030E00000000000000000000000000000000000E0
:1030F00000000000000000000000000000000000D0
:1031000000000000C001C001C001C001C001C00139
:10311000C00180008000800080008000800080006E
:1031200000000000000000008001C003C003800117
:10313000000000000000000000000000000000008F
:10314000E01CE01CF01E700E380718030801840014
:10315000000000000000000000000000000000006F
:10316000000000000000000000000000000000005F
:10317000000000000000000000000000000000004F
:10318000000000000000201020102010201020104F
:10319000FE7FFE7F100810081008100810081008A5
:1031A0001008FE7FFE7F08040804080408040804D1
:1031B000000000000000000000000000000000000F
:1031C000000000010001C0076019103118311839E2
:1031D000183938017001E001C0038007000F001D9D
:1031E000003900311C311C310C310C11180DE00775
:1031F00000010001000100000000000000000000CC
:103200000000000000001C1036186308630C630403
:103210006304630263026301361D9C37802280636E
:103220004063406320632063306310221836081C1B
:10323000000000000000000000000000000000008E
:10324000000000000000F00098018C018C018C014E
:103250008C018C00CC007800183E1C08360832081F
:1032600063046304C304C303834306438E26781CAC
:10327000000000000000000000000000000000004E
:103280001C003C003C003000300010000C00060028
:10329000000000000000000000000000000000002E
:1032A000000000000000000000000000000000001E
:1032B000000000000000000000000000000000000E
:1032C0000040002000100008000C0004000600036D
:1032D00000030003800180018001800180018001E2
:1032E0008001800100030003000300060006000CBB
:1032F0000008001000200040000000000000000056
:103300000200040008001000300020006000C0002F
:10331000C000C00080018001800180018001800127
:1033200080018001C000C000C0006000600030006B
:10333000100008000400020000000000000000006F
:103340000000000000000000000000018003800376
:1033500000011C713C79783DC0070001C007783D31
:103360003C791C7100018003800380010000000093
:10337000000000000000000000000000000000004D
:10338000000000000000000000000000000100013B
:1033900000010001000100010001FC7F00010001AB
:1033A0000001000100010001000100000000000018
:1033B000000000000000000000000000000000000D
:1033C00000000000000000000000000000000000FD
:1033D00000000000000000000000000000000000ED
:1033E000000000000000000000001C003C003C0049
:1033F0003000300010000C0006000000000000004B
:1034000000000000000000000000000000000000BC
:1034100000000000000000000000FE7F000000002F
:10342000000000000000000000000000000000009C
:10343000000000000000000000000000000000008C
:10344000000000000000000000000000000000007C
:10345000000000000000000000000000000000006C
:10346000000000000000000018003C003C001800B4
:10347000000000000000000000000000000000004C
:103480000040006000200030001000180008000C10
:103490000004000600020003000180018000C0005B
:1034A00040006000200030001000180008000C00F0
:1034B0000400060002000000000000000000000000
:1034C000000000000000C007600C301818301830F1
:1034D00018200C600C600C600C600C600C600C60C0
:1034E0000C600C601820183018303018600CC007C1
:1034F00000000000000000000000000000000000CC
:1035000000000000000000018001F801800180013E
:1035100080018001800180018001800180018001A3
:10352000800180018001800180018001C003F81FBB
:10353000000000000000000000000000000000008B
:10354000000000000000E007101C081804300430E0
:103550000C300C300030001800080004000200019C
:10356000800040002020102008200430FC1FFC1F99
:10357000000000000000000000000000000000004B
:10358000000000000000E003180E0C0C0C180C18D2
:103590000C180018000C0006C003000E00180010E4
:1035A000003000300C300C300C100C18180CE003FC
:1035B000000000000000000000000000000000000B
:1035C000000000000000000C000E000E000F800E36
:1035D000800E400E600E200E100E100E080E040E0F
:1035E000040EFE7F000E000E000E000E000E000EF8
:1035F000C07F00000000000000000000000000008C
:10360000000000000000F03FF03F1000100010002C
:1036100008000800C807280C1818081000300030EF
:10362000003000300C300C3004180418080CF00383
:10363000000000000000000000000000000000008A
:10364000000000000000800FC01020301030180073
:10365000180008000C008C0F6C183C301C600C60CB
:103660000C600C600C601860182030306018C007C7
:10367000000000000000000000000000000000004A
:10368000000000000000F83FF83F1C100C08040880
:103690000404000400020002000100010001800097
:1036A00080008000C000C000C000C000C000C0009A
:1036B000000000000000000000000000000000000A
:1036C000000000000000E007300C18180C300C302F
:1036D0000C301C3038187008E007B007180E0C1CAE
:1036E000063806300630063006300C18180CE00399
:1036F00000000000000000000000000000000000CA
:10370000000000000000E00318040C080C1806106C
:10371000063006300630063006380C3C1836F031DC
:1037200000300018001800180C0C0C060C03F001F7
:103730000000000000000000000000000000000089
:103740000000000000000000000000000000000079
:10375000000000008001C003C003800100000000E1
:1037600000000000000000008001C003C0038001D1
:103770000000000000000000000000000000000049
:103780000000000000000000000000000000000039
:1037900000000000C000C0000000000000000000A9
:1037A000000000000000000000000000C000C00099
:1037B0008000800040004000000000000000000089
:1037C00000000000002000100008000400060003B4
:1037D0008001C0006000300018000C0018003000AC
:1037E0006000C00080010003000600040008001013
:1037F00000200000000000000000000000000000A9
:1038000000000000000000000000000000000000B8
:1038100000000000FE7F000000000000000000002B
:10382000FE7F00000000000000000000000000001B
:103830000000000000000000000000000000000088
:103840000000000004000800100020006000C0001C
:10385000800100030006000C001800300018000C66
:10386000000600038001C000600020001000080076
:103870000400000000000000000000000000000044
:1038800000000000C0073018083008600C601C60A1
:103890001C601C600030001C0006000180008000DD
:1038A00080008000000000008001C003C003800190
:1038B0000000000000000000000000000000000008
:1038C000000000000000C0076018103018200C2F06
:1038D0008C4D864CC64CC64C664C66446644662687
:1038E00066266615CC1C0C40082018303018C0071E
:1038F00000000000000000000000000000000000C8
:10390000000000000001C001C001C00140016003CF
:103910002003200320033006100610061006F80FBF
:10392000080C080C080C0C0C0418041806181F7C52
:103930000000000000000000000000000000000087
:10394000000000000000FE07181C1838183018305E
:10395000183018301818180CF807181818301820D4
:103960001860186018601860186018301818FE0F7A
:103970000000000000000000000000000000000047
:10398000000000000000C0276038103018200C40F4
:103990000C400400060006000600060006000600B3
:1039A000060006000C400C400C2018303018C007F0
:1039B0000000000000000000000000000000000007
:1039C000000000000000FE03180E18181830183010
:1039D0001830186018601860186018601860186057
:1039E000186018601830183018101818180EFE03D8
:1039F00000000000000000000000000000000000C7
:103A0000000000000000FE3F183018201860184029
:103A1000180018081808180CF80F180C18081808BF
:103A20001800180018001840184018201830FE3FE1
:103A30000000000000000000000000000000000086
:103A4000000000000000FE7F1870184018C01880A9
:103A50001800181018101818F81F18181810181037
:103A600018001800180018001800180018007E0030
:103A70000000000000000000000000000000000046
:103A8000000000000000C013701C101018100C2063
:103A90000C2004000600060006000600060006FCD6
:103AA000063006300C300C30183018303008C007A3
:103AB0000000000000000000000000000000000006
:103AC0000000000000003F7E0C180C180C180C18A9
:103AD0000C180C180C180C180C18FC1F0C180C18CF
:103AE0000C180C180C180C180C180C180C183F7E1D
:103AF00000000000000000000000000000000000C6
:103B0000000000000000F81F80018001800180019A
:103B1000800180018001800180018001800180019D
:103B20008001800180018001800180018001F81FF7
:103B30000000000000000000000000000000000085
:103B4000000000000000E07F0006000600060006FE
:103B50000006000600060006000600060006000635
:103B60000006000600060006000600060006000625
:103B700000060E060E038E01FC000000000000008F
:103B80000000000000007E7C1818180818041806B1
:103B90001802180198019801D801B80338031807D2
:103BA0001806180E180C181C1818183018307EFC3F
:103BB0000000000000000000000000000000000005
:103BC0000000000000007E00180018001800180017
:103BD0001800180018001800180018001800180025
:103BE0001800180018001840184018201830FE3F20
:103BF00000000000000000000000000000000000C5
:103C00000000000000001FF81C381C381C381C3C49
:103C1000343434343434343674326432643264329A
:103C20006431C431C431C431C430C43084309FFCE9
:103C30000000000000000000000000000000000084
:103C40000000000000001F7C1C103C1034103410D9
:103C500074106410E410C410C4118411841304138C
:103C600004170416041E041C041C041C04181F184A
:103C70000000000000000000000000000000000044
:103C8000000000000000C003300C181808100C30B1
:103C90000C3006600660066006600660066006601E
:103CA000066006600C200C3008101818300CC00399
:103CB0000000000000000000000000000000000004
:103CC000000000000000FE0F18181830186018607F
:103CD00018601860186018301818F80F18001800CD
:103CE00018001800180018001800180018007E00AE
:103CF00000000000000000000000000000000000C4
:103D0000000000000000C003300C18180C100C302C
:103D10000C200660066006600660066006600660AD
:103D200006600660E4612C331C321816300EC007A2
:103D3000004C007C00380000000000000000000083
:103D4000000000000000FE07181C1838183018305A
:103D5000183018301818180CF807980318031807AB
:103D600018061806180E180C180C181C18187E784F
:103D70000000000000000000000000000000000043
:103D8000000000000000E027303818300C200C2024
:103D90000C000C0018007800E003800F001E0038B3
:103DA0000070006004600460086018303818C80FA4
:103DB0000000000000000000000000000000000003
:103DC000000000000000FC3F8C21846182418241A0
:103DD00080018001800180018001800180018001DB
:103DE0008001800180018001800180018001E00765
:103DF00000000000000000000000000000000000C3
:103E00000000000000003F7C0C100C100C100C1087
:103E10000C100C100C100C100C100C100C100C10C2
:103E20000C100C100C100C100C1008083804E003D7
:103E30000000000000000000000000000000000082
:103E40000000000000003EF8182018201820301054
:103E5000301030103010600860086008E00CC004BA
:103E6000C004C004800380038003800300010001BC
:103E70000000000000000000000000000000000042
:103E8000000000000000DFF38661862186218C217E
:103E90000C218C238C138C138C134C135812581632
:103EA000580E380E380E380E300C10041004100462
:103EB0000000000000000000000000000000000002
:103EC0000000000000007E3E18083808300430046E
:103ED00070026002E001C001C00180018003400364
:103EE000400720062006100C100C081808183E7C0D
:103EF00000000000000000000000000000000000C2
:103F00000000000000007E7C1C101810180830080B
:103F1000300C700460046002C002C002C001800165
:103F20008001800180018001800180018001E00723
:103F30000000000000000000000000000000000081
:103F4000000000000000F83F18180818040C040EC8
:103F500000060007000380038001C001C000E000EC
:103F6000600070003000382018201C100C18FE1F54
:103F70000000000000000000000000000000000041
:103F8000C03F400040004000400040004000400072
:103F90004000400040004000400040004000400021
:103FA0004000400040004000400040004000400011
:103FB00040004000C03F0000000000000000000082
:103FC0000000000008001800180010003000200059
:103FD000600060004000C00080008001800100019E
:103FE00000030002000600060004000C0008001890
:103FF0000018001000300020000000000000000049
:10400000FC030002000200020002000200020002A3
:104010000002000200020002000200020002000290
:104020000002000200020002000200020002000280
:1040300000020002FC03000000000000000000007D
:104040008007C006200810100000000000000000DB
:104050000000000000000000000000000000000060
:104060000000000000000000000000000000000050
:104070000000000000000000000000000000000040
:104080000000000000000000000000000000000030
:104090000000000000000000000000000000000020
:1040A0000000000000000000000000000000000010
:1040B0000000000000000000FFFF00000000000002
:1040C0007800C000000100000000000000000000B7
:1040D00000000000000000000000000000000000E0
:1040E00000000000000000000000000000000000D0
:1040F00000000000000000000000000000000000C0
:1041000000000000000000000000000000000000AF
:1041100000000000F00318060C0C0C0C000C800FC3
:10412000700C1C0C0C0C060C060C064C0C4FF838D2
:10413000000000000000000000000000000000007F
:104140000000000010001E001800180018001800E1
:1041500018001800180FD818383038601860186028
:104160001860186018601860182038307818C80770
:10417000000000000000000000000000000000003F
:10418000000000000000000000000000000000002F
:1041900000000000C007700C181818180C180C004C
:1041A0000C000C000C000C20182018103008C00760
:1041B00000000000000000000000000000000000FF
:1041C000000000000010001E001800180018001861
:1041D00000180018E01B301C181818180C180C18C0
:1041E0000C180C180C180C180818181C307AE00958
:1041F00000000000000000000000000000000000BF
:1042000000000000000000000000000000000000AE
:1042100000000000C007300C181808100C300C30DB
:10422000FC3F0C000C000C00182018107018C00780
:10423000000000000000000000000000000000007E
:10424000000000000000003E80C380C0C0C0C0006D
:10425000C000C000FC1FC000C000C000C000C00003
:10426000C000C000C000C000C000C000C000F80F07
:10427000000000000000000000000000000000003E
:10428000000000000000000000000000000000002E
:1042900000000000C077306C101818181818181893
:1042A0001018300CF00718001800F00FF03F0870DD
:1042B0000C600C600C603838E00F0000000000005B
:1042C0000000000010001E00180018001800180060
:1042D00018001800980FD8183830183018301830D7
:1042E00018301830183018301830183018307EFC5C
:1042F00000000000000000000000000000000000BE
:104300000000000000008003800380030000000024
:1043100000000001F801800180018001800180011E
:104320008001800180018001800180018001F81FEF
:10433000000000000000000000000000000000007D
:1043400000000000000000380038003800000000C5
:1043500000000010801F0018001800180018001836
:10436000001800180018001800180018001800188D
:1043700000180018180C1806F003000000000000D8
:104380000000000010001E0018001800180018009F
:1043900018001800183E180C180618031801980188
:1043A000D801380318071806180C181C18187E7C3A
:1043B00000000000000000000000000000000000FD
:1043C000000000000001F8018001800180018001EF
:1043D00080018001800180018001800180018001D5
:1043E0008001800180018001800180018001F81F2F
:1043F00000000000000000000000000000000000BD
:1044000000000000000000000000000000000000AC
:1044100000000800EE1C9C338C318C318C318C31C7
:104420008C318C318C318C318C318C318C31DE7B08
:10443000000000000000000000000000000000007C
:10444000000000000000000000000000000000006C
:10445000000010001E0FD8183830183018301830EF
:1044600018301830183018301830183018307EFCDA
:10447000000000000000000000000000000000003C
:10448000000000000000000000000000000000002C
:1044900000000000C007701C103018300C600C6069
:1044A0000C600C600C600C60183018303018C007BD
:1044B00000000000000000000000000000000000FC
:1044C00000000000000000000000000000000000EC
:1044D000000010009E0F581838301820186018601F
:1044E000186018601860186018303830781898070D
:1044F00018001800180018007E00000000000000DE
:1045000000000000000000000000000000000000AB
:1045100000000000C023303C183818300C300C303C
:104520000C300C300C300C3008301838303CE03394
:10453000003000300030003000FC000000000000BF
:10454000000000000000000000000000000000006B
:10455000000060007E3C60666061E000E00060009A
:104560006000600060006000600060006000FE07A6
:10457000000000000000000000000000000000003B
:10458000000000000000000000000000000000002B
:1045900000000000E02730381830182018007000A4
:1045A000E003800F001C043004300C301C18EC0FAA
:1045B00000000000000000000000000000000000FB
:1045C000000000000000000000008000800080006B
:1045D000C000E000FC1FC000C000C000C000C00060
:1045E000C000C000C000C000C020C0208011000F6B
:1045F00000000000000000000000000000000000BB
:1046000000000000000000000000000000000000AA
:10461000000010201E3C18301830183018301830A8
:1046200018301830183018301830183830F4E013BB
:10463000000000000000000000000000000000007A
:10464000000000000000000000000000000000006A
:10465000000000007E3C18181808380830043004A8
:10466000700260026002E001C001C001C000800071
:10467000000000000000000000000000000000003A
:10468000000000000000000000000000000000002A
:1046900000000000DFF78E630C238C238C2398131B
:1046A000981358165816700E700E700E20042004C1
:1046B00000000000000000000000000000000000FA
:1046C00000000000000000000000000000000000EA
:1046D00000000000FC3E70087004E004C002C0014D
:1046E0008003800340076006200C100C18183E7EE3
:1046F00000000000000000000000000000000000BA
:1047000000000000000000000000000000000000A9
:10471000000000007E7C18181808300830083004AB
:1047200060046004C002C002C002800180018001F8
:104730008000800080004C003C0000000000000071
:104740000000000000000000000000000000000069
:1047500000000000FC1F0C0C040E04060003800384
:104760008001C000E0007020302038301C18FC1F91
:104770000000000000000000000000000000000039
:1047800000300008000400040004000400040004D9
:104790000004000400040004000280010002000480
:1047A00000040004000400040004000400040004E9
:1047B00000040004000800300000000100010001B6
:1047C00000010001000100010001000100010001E1
:1047D00000010001000100010001000100010001D1
:1047E00000010001000100010001000100010001C1
:1047F00000010001000100010001000000000000B4
:104800000C001000200020002000200020002000CC
:1048100020002000200020004000800140002000F7
:104820002000200020002000200020002000200088
:104830002000200010000C00000000003800C40020
:10484000864002610022001C000000000000000001
:104850000000000000000000000000000000000058
:104860000000000000000000000000000000000048
:10487000000000000000000000000200BE078904E4
:104880008804BF0494072200FD030402FC03040211
:10489000FC0344025201DF0040049E0712005E0048
:1048A00052025E01D20452049A0710001000FF0168
:1048B00011011101FF0111011101FF011104100487
:1048C000E0070000FC018000400020002000FF07FE
:1048D0002000200020002000380010002000FE07EB
:1048E000000008019000FE07020002000200020022
:1048F0000100FC01040104010401FC010000DF07C8
:10490000510451045104DF075104E2012401200144
:10491000200117060400F403240244018C00440122
:10492000300682008400800080008700F407840045
:10493000840094008C008400800004000400FC07C4
:1049400002000200FE0300020002FF020002000259
:10495000C0010000FE038800880088008800FF076F
:1049600088008800840084008200900011011100FA
:10497000FF0708000800F8011401A4004200B1017B
:104980000C06000000000000000000000000000015
:1049900000000000000000003F3F04007C3E1222A7
:1049A0001022FF222822443E0200F80F08080808BF
:1049B000F80F08080808F80F08083F3F08022422EB
:1049C0004212FF0E800200427E42427C42007E2262
:1049D0004212420E7E0242425242227C3F3F8000FF
:1049E00080008000FC1F841084108410FC1F841041
:1049F00084108410FC1F845080408040007F3F3F23
:104A00000000FE1F00080004000280018000FF7FFC
:104A1000800080008000800080008000A0004000B6
:104A20003F3F40008000FE3F0000100420042002B1
:104A3000FC7F0400040004000400040002000200E3
:104A400001003F000000F80F0808080808080808DF
:104A5000F80F000000003E3E2222222222222222C3
:104A60003E3E22223F3F0000840F880888088008CD
:104A700040702F00C81F88108808080928051802F0
:104A80000805C01830603F3F000204020802080217
:104A900000020002EF7F0802080208020802080272
:104AA00028021802080200023F3F08000800080020
:104AB000F83F080004000400FC1F00100010001064
:104AC000FF1300100010000A00043F3F0000FE3FEB
:104AD00010041004100410041004FF7F10041004CC
:104AE0001004100408040804040402043F3F80007A
:104AF000880888104400FC3F40002000E01F501050
:104B000090108808080504020205C01838603F3F6D
:104B1000000000000000000000000008F8FF1F0077
:104B200018000018000018000018000018000018F5
:104B300000001800001800001800001800001800FD
:104B4000001800001800001800001810FEFF3F00B9
:104B500000000000000000003F3F00000040100087
:104B6000C0200040600060400020401020FF3F3027
:104B7000000070000428000C2804062408062408FD
:104B80000222180220180220180120100120000122
:104B9000208000208020A0FF7F2000002000000057
:104BA00000003F3F000000000000C0FF0340000283
:104BB000400002400002400002400002C0FF0340EB
:104BC0000002FCFF3F00030000010080010080FFA5
:104BD000078000060000020000020000020000033F
:104BE00000180100E0010060000000003A00000031
:104BF00000000000000000000000000000000000B5
:104C000000000000000000000000000000000000A4
:104C100000003800003800003800000000000000EC
:104C200000000000380000380000380000000000DC
:104C30000000000000003F3F0000000000000000F6
:104C40008000000080000000C0C00008C0FFF91F05
:104C5000600C180C200C180C100C180C000C180C04
:104C60000084190CFCFF1B0C0006180C000E180C1D
:104C70000032F80F00E3180C80C1190CC08001004D
:104C80006000010018FEFF03040680010006800199
:104C90000006800100FEFF01000680010006800181
:104CA000000680010006800100FEFF010006800171
:104CB00000028000000000003F3F000000000000F4
:104CC00000000000000000070C0000031C00800131
:104CD0000C02C0100C0760608C0330E0EC001CF884
:104CE0001C00F8C70C1008800C1010200C10F07F6E
:104CF00018383020F81F3020000030200000F03F2E
:104D00000C0030200C0630200C0F30208C0330209B
:104D1000CC00F03F3C0030200C1030200C10302034
:104D20000C1030200C1030200C10303FFC3F30387D
:104D3000F81F10100000000000003F3F00000000BE
:104D4000000000000040000000C0010000C00000A2
:104D500000C0000000C0000020C00001E0FFFF0311
:104D600060C0000360C0000360C0000360C00003B7
:104D700060C00003E0FFFF0360C0000360C00003E9
:104D800060C0000360C0000360C0000360C0000397
:104D9000E0FFFF0360C0000360C0001000C000100F
:104DA00000C0001000C0001000C0001800C0FF3F8D
:104DB0000080FF1F00000000000000003F3F0000D7
:104DC0000000000000000000000000000002C0FF22
:104DD000FF070000800F0000C0010000600000001D
:104DE000300000000C0000800600008003000080FE
:104DF0000300008001080080011CFCFFFF3F0080D1
:104E0000010000800100008001000080010000809E
:104E1000010000800100008001000080010000808E
:104E2000010000800100008001000084010000F802
:104E3000010000E0000000400000000000003F3FD3
:104E400000000000000000000060000000C0000042
:104E500000800100008003080000011CF8FFFF3FF4
:104E6000000000000004200000187000001830004E
:104E700000301000003018082010081CE0FFFF3F31
:104E800060000000600000006000000060000000A2
:104E90006000000060000000200000002000000012
:104EA000300000003000000010000000180000007A
:104EB00008000000040000000200000000000000E4
:104EC0003F0000000000000000000002200000FE83
:104ED000FF0000066000000660000006600000069B
:104EE000600000066000000660000006600000062A
:104EF000600000FE7F000006600000062000000049
:104F0000000010100004F03FFC1F30300C0C30305B
:104F10000C0C30300C0C30300C0C30300C0C3030B1
:104F20000C0C30300C0C30300C0CF03FFC0F3030DF
:104F30000C0C30300C0C30000C0410000000000091
:104F400000003F3F00000000000000002000800043
:104F5000C080FF01C081C1008081C1008081C1008B
:104F60008080C1000080C00000C0C00000C0C03F01
:104F70008060803FFC2300008011000180EDFF076E
:104F80008081000380018103800181018001810112
:104F90008001C2008021C2008011640080097C0071
:104FA000800538008007180080037C008001E6013E
:104FB0000080C30700E0003F0038000C000700003D
:104FC000000000003F3F0000000000000000200043
:104FD000080040003800800118008003180000031A
:104FE000180000031800000018000000180000005E
:104FF00018000000180080001818FEF9FF3F80001C
:105000001800800018008000180080001800800040
:105010001800800018008000180080001800801020
:10502000180080081800800C180080061800800303
:105030001800C001180080011800000018000000CE
:105040000800000000003F3F0000000000000000DA
:1050500000020000000E0000000600000006000034
:1050600000060000000600000006000C00FEFF1F06
:105070000006000000060000000600000006000018
:105080000002000400FFFF0F0003000600000006FE
:1050900000000006000000060000000600001806E0
:1050A000FCFF3F06000000060000000600000003B1
:1050B00000000003000082030000FC010000F0007B
:1050C00000006000000000003F3F00000000000002
:1050D000000000000000000000040000000EF8FFC7
:1050E000FF1F000C3000000C3000000C3000000CE2
:1050F0003000000C3000000C3000000C3000000CC0
:105100003000000C3018FCFFFF3F000C3000000C9A
:105110003000000C3000000C3000000C30000004A7
:1051200030000006300000063000000330000001AF
:1051300030008000300040003000200030001800B7
:10514000300004001000000000003F3F000000009D
:10515000000000000020000000601000C06060003F
:10516000C020C000C030C00160308001603000014C
:1051700030300018F8FFFF3F10100000001800004A
:10518000001800000018000100FCFF03002C800143
:10519000004CC0010046C000008660000082610033
:1051A0000003330000011A0080010E00C0001E0041
:1051B00040003F002080F10010E0C0030830803F35
:1051C000040E001E80010000000000003F3F0000B0
:1051D000000000000000800004008003180080012F
:1051E0003000800130008041301080C1FF3F804599
:1051F0000018FC6F000880711C0480010C00800105
:105200000C00800906008005061880FBFF3FC001E6
:105210000303F0010103BC8181019C81800188C1ED
:10522000800180C1C0008001C7008001780080013A
:10523000E0008001B00380011C0F8001061CF88192
:105240000318E0700010400C0000000000003F3F19
:105250000000000000000000000000000000000846
:105260000000001CFCFFFF1F00C0000000C0000089
:1052700000C0000000C0000000C0000000C000002E
:1052800000C0010000C00E0000C0380000C0F000E7
:1052900000C0C00100C0800300C0000300C00003C4
:1052A00000C0000000C0000000C0000000C00000FE
:1052B00000C0000000C0000000C0000000C00000EE
:1052C00000C0000000C0000000400000000000001E
:1052D0003F3F000000000000000080000400800349
:1052E000180080013000800130008041301080C102
:1052F000FF3F80450018FC6F000880711C0480018E
:105300000C0080010C00800906008005061880FB57
:10531000FF3FC0010303F0010103BC8181019C81B7
:10532000800188C1800180C1C0008001C700800168
:1053300078008001E0008001B00380011C0F800133
:10534000061CF8810318E0700010400C00000000FB
:1053500000003F3F0000000000000000400040004F
:10536000E000C000600040006080400020FAFD0FB7
:10537000F0C7400C10C0400C1040FF3F0860400CCC
:105380000861400CFC23400C6430FD0F62F84304BC
:1053900060104100600041086002FF1FFE8F410065
:1053A0006088410060904100609040106090FF3F35
:1053B00060E040006064400060634000E0B1410094
:1053C000E0180700400CFE3F0002E01F80010000D3
:1053D000000000003F3F00000000000000000080CF
:1053E00040002080C3016080C100C080C100808176
:1053F000C1008080C10C00FCFF1F0080C100008044
:10540000C1000080C1008080C100FE81C100C08059
:10541000C100C080C118C0FCFF3FC080C100C08077
:10542000C100C080C100C080C000C0C0C000C0407A
:10543000C000C020C000C010C0002009C000180675
:1054400040000C1C00400CF0FF3F0080FF0F0000EC
:105450000000000000003F3F0000000000000000CE
:1054600000000000000C0000003C00000060000094
:1054700000C00000008000000080010000800100EA
:1054800000C0030000C0030000C00200006006006E
:10549000006006000060040000300C0000300C00CA
:1054A00000181800000C3800000C300000066000E6
:1054B0000003E0008001C001800080034000000F75
:1054C0002000003E1000001C0C000008020000003C
:1054D00000000000000000003F3F0000000000004E
:1054E0000000001000000060000000C0000000800C
:1054F000010000800300000001040000010EF0FF25
:10550000FF1F00800100008001000080010000807A
:105510000100008001000080010000800100008087
:105520008101E0FFFF034080010000800100008056
:105530000100008001000080010000800100008067
:105540000100008001080080011CFCFFFF3F0000FB
:10555000000000000000000000003F3F00000000CD
:1055600000000000000000008000000180FFFF0339
:1055700080810103808101018081010180FFFF01A1
:10558000808101018081010180810101808101010F
:1055900080FFFF01806104010060080000301000FE
:1055A00000182000001CC0000077B00F8031303E92
:1055B000603030181C18300000183000001830001F
:1055C000000C3000000C300000063000800130007C
:1055D0006000300018001000000000003F3F000095
:1055E0000000000000000000001000000038FCFF78
:1055F000FF3F00C0000000E000000060000000204D
:10560000000010200004F0FFFF0F30100C043010D9
:105610000C0430100C0430100C0430F00F04301067
:105620000C0430100C0430100C0430100C0430103A
:105630000C0430F00F0430100C0430100C04301047
:105640000C0430100C0430100C04F0FFFF07300085
:1056500000043000000410000000000000003F3F84
:105660000000000000000000000008000003180017
:1056700000030C0000230C01FC7FFE0300038201E9
:1056800000038300F87FC100008340040003FF0F84
:105690000043300CFCFF300C0000300C0010301CBC
:1056A000F0FFFF3F1010300C1010300CF01F300CCA
:1056B0001010300C1090FF0F10103004F01F30004D
:1056C000101030001010300010103000101030009A
:1056D000101B3700101C3C000004180000000000E4
:1056E0003F0000000000000000000040000000C07B
:1056F000010000C0000000C0000000C0000000C0A9
:10570000000CFCFFFF1F0060010000600200006051
:105710000200003004000030080000181800003CAF
:10572000700000E6E00180C1810FE080033F1800B7
:10573000030C0626000000CE01004086030160062F
:1057400023062006210E3006201C3806200C1C06DD
:10575000600800ECFF0000FC7F000000000000007B
:1057600000003F00000000000000000010000008E2
:10577000F0FFFF1F302000083070000830300008B4
:1057800030F03F08301830083028180830640C0812
:105790003042060830820608308103083080030852
:1057A00030600E0830303C08300CF00B30C3C108BC
:1057B000F0000708300006083000000830780008C4
:1057C00030C00F0830001E083000180830001008E4
:1057D000F0FFFF0F3000000830000008300000002C
:1057E000000000003F00000000000000000000007A
:1057F000040000011C0000070C0000030C00000363
:105800000C0000030C0000030C0000030C0000035C
:105810000C0C00FFFF1F000300000003000000034A
:105820000000000300000003200000FF7F000003D1
:105830003000000130008001300080013000800124
:105840003000C0003000C000300060003000200098
:10585000300010003000180030000400300000005C
:105860001000000000003F3F0000000000000000AA
:105870000001000000070000000300038001C007D2
:1058800080017800C0D01F00C030180060301800C0
:10589000E0301800F0301800D0301800D830100078
:1058A000C8301008C4F0FF1FC2301000C0303000F4
:1058B000C0303000C0303000C0302000C030600048
:1058C000C0306000C030C020C030C420C030831160
:1058D000C0F08313C0700617C0300C1EC000183C07
:1058E00040000820000000003F3F000000000000D2
:1058F000000000000C0000001C0010000C00600004
:105900000C08E0FCFF1FC0000C0040000C00001061
:105910000C0200F0FF0700300C0280300C02FE3158
:105920000C02C0300C02C0F0FF03C0300E02C010E9
:105930000E00C0001F00C080ED00C0C08C03C0601E
:105940000C0FC0300C0EC0080C0CE0040C00300131
:105950000C001C060C000C1C004000F0FF3F0080F7
:10596000FF0F00000000000000003F3F00000000AB
:105970000000000020000000C0000004C081FF0FF4
:10598000808101068081010680840106FC8F11065A
:1059900000867106008631060083310600833106D9
:1059A0008081310680813106C0813106E087110691
:1059B000A09D1106909931068819F800841178008D
:1059C0008201680080016C0080016C00800166200B
:1059D000800163208001612080C160308061E07FB0
:1059E0008019C03F80040000000000003F0000005C
:1059F0000000000000000002000000060010008609
:105A0000FF3F0006C0006006600060262000607E48
:105A100020106006FE3F6006061860060618604605
:105A20004618FCFFC6190002C6180006C618200258
:105A3000C6186002C6186042C61830E2C618306246
:105A4000C61818324618083246180418E000040C2C
:105A50002001000630060003181C80010C3860008D
:105A60000630108001200C600020000000003F3F45
:105A700000000000000000000020000000C0000046
:105A80000080010000800110FCFFFF3F00000000CB
:105A90000001400000FEFF00000260000002600004
:105AA0000002600000FE7F000002600000010000B4
:105AB00010000008F0FFFF1F3000000C3004100C35
:105AC00030FC3F0C300C180C300C180C300C180C3F
:105AD000300C180C30FC1F0C300C180C3004080C67
